{
  "contractName": "Item",
  "abi": [
    {
      "inputs": [
        {
          "internalType": "contract ItemManager",
          "name": "_parentContract",
          "type": "address"
        },
        {
          "internalType": "uint256",
          "name": "_priceInWei",
          "type": "uint256"
        },
        {
          "internalType": "uint256",
          "name": "_index",
          "type": "uint256"
        },
        {
          "internalType": "string",
          "name": "_identifier",
          "type": "string"
        }
      ],
      "stateMutability": "nonpayable",
      "type": "constructor"
    },
    {
      "stateMutability": "nonpayable",
      "type": "fallback"
    },
    {
      "inputs": [],
      "name": "identifier",
      "outputs": [
        {
          "internalType": "string",
          "name": "",
          "type": "string"
        }
      ],
      "stateMutability": "view",
      "type": "function"
    },
    {
      "inputs": [],
      "name": "index",
      "outputs": [
        {
          "internalType": "uint256",
          "name": "",
          "type": "uint256"
        }
      ],
      "stateMutability": "view",
      "type": "function"
    },
    {
      "inputs": [],
      "name": "paidWei",
      "outputs": [
        {
          "internalType": "uint256",
          "name": "",
          "type": "uint256"
        }
      ],
      "stateMutability": "view",
      "type": "function"
    },
    {
      "inputs": [],
      "name": "priceInWei",
      "outputs": [
        {
          "internalType": "uint256",
          "name": "",
          "type": "uint256"
        }
      ],
      "stateMutability": "view",
      "type": "function"
    },
    {
      "stateMutability": "payable",
      "type": "receive"
    }
  ],
  "bytecode": "0x608060405234801561001057600080fd5b5060405161075c38038061075c8339818101604052608081101561003357600080fd5b810190808051906020019092919080519060200190929190805190602001909291908051604051939291908464010000000082111561007157600080fd5b8382019150602082018581111561008757600080fd5b82518660018202830111640100000000821117156100a457600080fd5b8083526020830192505050908051906020019080838360005b838110156100d85780820151818401526020810190506100bd565b50505050905090810190601f1680156101055780820380516001836020036101000a031916815260200191505b5060405250505083600460006101000a81548173ffffffffffffffffffffffffffffffffffffffff021916908373ffffffffffffffffffffffffffffffffffffffff1602179055508260008190555081600281905550806003908051906020019061017192919061017b565b5050505050610220565b828054600181600116156101000203166002900490600052602060002090601f016020900481019282601f106101bc57805160ff19168380011785556101ea565b828001600101855582156101ea579182015b828111156101e95782518255916020019190600101906101ce565b5b5090506101f791906101fb565b5090565b61021d91905b80821115610219576000816000905550600101610201565b5090565b90565b61052d8061022f6000396000f3fe6080604052600436106100435760003560e01c80632986c0e5146103365780633c8da588146103615780637998a1c41461038c57806383d12eef1461041c57610327565b366103275760005434146100bf576040517f08c379a000000000000000000000000000000000000000000000000000000000815260040180806020018281038252601a8152602001807f4f6e6c792066756c6c792070616964732061726520616c6c6f7700000000000081525060200191505060405180910390fd5b600060015414610137576040517f08c379a00000000000000000000000000000000000000000000000000000000081526004018080602001828103825260168152602001807f4974656d2077617320616c7265647920736f6c6421210000000000000000000081525060200191505060405180910390fd5b346001600082825401925050819055506000600460009054906101000a900473ffffffffffffffffffffffffffffffffffffffff1673ffffffffffffffffffffffffffffffffffffffff1634600254604051602401808281526020019150506040516020818303038152906040527f800fb83f000000000000000000000000000000000000000000000000000000007bffffffffffffffffffffffffffffffffffffffffffffffffffffffff19166020820180517bffffffffffffffffffffffffffffffffffffffffffffffffffffffff83818316178352505050506040518082805190602001908083835b602083106102465780518252602082019150602081019050602083039250610223565b6001836020036101000a03801982511681845116808217855250505050505090500191505060006040518083038185875af1925050503d80600081146102a8576040519150601f19603f3d011682016040523d82523d6000602084013e6102ad565b606091505b5050905080610324576040517f08c379a00000000000000000000000000000000000000000000000000000000081526004018080602001828103825260178152602001807f64656c697665727920646964206e6f7420776f726b212100000000000000000081525060200191505060405180910390fd5b50005b34801561033357600080fd5b50005b34801561034257600080fd5b5061034b610447565b6040518082815260200191505060405180910390f35b34801561036d57600080fd5b5061037661044d565b6040518082815260200191505060405180910390f35b34801561039857600080fd5b506103a1610453565b6040518080602001828103825283818151815260200191508051906020019080838360005b838110156103e15780820151818401526020810190506103c6565b50505050905090810190601f16801561040e5780820380516001836020036101000a031916815260200191505b509250505060405180910390f35b34801561042857600080fd5b506104316104f1565b6040518082815260200191505060405180910390f35b60025481565b60005481565b60038054600181600116156101000203166002900480601f0160208091040260200160405190810160405280929190818152602001828054600181600116156101000203166002900480156104e95780601f106104be576101008083540402835291602001916104e9565b820191906000526020600020905b8154815290600101906020018083116104cc57829003601f168201915b505050505081565b6001548156fea2646970667358221220b8df3d9ef61ee821847cd161617fab0a2db7a25e65602084a24c16689baa658e64736f6c63430006010033",
  "source": "pragma solidity ^0.6.0;\r\n\r\nimport './ItemManager.sol';\r\n\r\ncontract Item {\r\n    uint public priceInWei;\r\n    uint public paidWei;\r\n    uint public index;\r\n    string public identifier;\r\n    \r\n    ItemManager parentContract;\r\n    \r\n    constructor(ItemManager _parentContract, uint _priceInWei, uint _index, string memory _identifier) public {\r\n        parentContract = _parentContract;\r\n        priceInWei = _priceInWei;\r\n        index = _index;\r\n        identifier = _identifier;\r\n    }\r\n    \r\n    receive() external payable{\r\n        require(msg.value == priceInWei, \"Only fully paids are allow\");\r\n        require(paidWei == 0, 'Item was alredy sold!!');\r\n        paidWei += msg.value;\r\n        \r\n        (bool success, ) = address(parentContract).call.value(msg.value)(abi.encodeWithSignature(\"triggerPayment(uint256)\", index));\r\n        \r\n        require(success, \"delivery did not work!!\");\r\n        \r\n        \r\n    }\r\n    \r\n    fallback()external {}\r\n}",
  "sourcePath": "C:\\Users\\omar.botia\\Documents\\bitcoin\\udemy\\truffle\\contracts\\Item.sol",
  "compiler": {
    "name": "solc",
    "version": "0.6.1+commit.e6f7d5a4.Emscripten.clang"
  },
  "schemaVersion": "3.1.0",
  "updatedAt": "2020-04-19T16:33:05.531Z",
  "devdoc": {
    "methods": {}
  },
  "userdoc": {
    "methods": {}
  }
}